:020000022000DC
:1060000000F0002035620200656202006762020053
:10601000696202006B6202006D6202000000000013
:106020000000000000000000000000006F6202009D
:1060300071620200000000007362020075620200DB
:10604000796202007B6202007D620200891905000C
:106050008162020083620200B9720200876202005C
:10606000896202008B62020071FE03008F620200EF
:106070009162020093620200956202009762020040
:10608000996202006D090500BBF102009F620200E7
:10609000AD090500A3620200CD550400A76202000D
:1060A000A9620200AB620200AD620200AF620200B0
:1060B000B1620200B36202007762020077620200FE
:1060C000B5620200B7620200B9620200BB62020060
:0C60D000BD620200BF620200C16202005B
:1060DC00354936480A1A02D0072291438D46344975
:1060EC0034480A1A06D00722914381F30988022208
:1060FC0082F3148830483149314A00F043F8314872
:10610C003149324A00F03EF831483249324A00F007
:10611C0039F832483249334A00F034F832483349BE
:10612C00334A00F02FF833483349344A00F02AF848
:10613C0033483449344A00F025F8344834490022B5
:10614C0000F02BF833483449002200F026F833488D
:10615C003349091A082903DB00220260043001606C
:10616C001F482049884205D00268043003B4904788
:10617C0003BCF7E700208646EC4600200021294AA4
:10618C009047FEE7884207D0521A05D003780130B9
:10619C000B700131013AF9D17047884202D002707C
:1061AC000130FAE77047000000F0002000E8002002
:1061BC0000F0002000F00020F8430500C832002059
:1061CC0040340020C4620200C4620200542A05005C
:1061DC00F8430500C8320020C8320020582B0500B7
:1061EC00582B0500582B0500582B0500582B050083
:1061FC00582B0500582B0500582B0500F6430500BD
:10620C00704505004034002040340020403400200C
:10621C005C6D00205C6D00205C6D00205C6D0020CE
:10622C005C710020CD74020008484FF007018843D0
:10623C008546074880470748016841F470010160B2
:10624C00BFF34F8FBFF36F8FFFF742BF00F00020FB
:10625C002159040088ED00E0FEE7FEE7FEE7FEE7CB
:10626C00FEE7FEE7FEE7FEE7FEE7FEE7FEE7FEE7FA
:10627C00FEE7FEE7FEE7FEE7FEE7FEE7FEE7FEE7EA
:10628C00FEE7FEE7FEE7FEE7FEE7FEE7FEE7FEE7DA
:10629C00FEE7FEE7FEE7FEE7FEE7FEE7FEE7FEE7CA
:1062AC00FEE7FEE7FEE7FEE7FEE7FEE7FEE7FEE7BA
:0862BC00FEE7FEE7FEE700BF6C
:1062C40080B483B000AF0346FB71FB7903F01F0277
:1062D400074997F907305B09012000FA02F241F8F7
:1062E400232000BF0C37BD465DF8047B704700BF18
:1062F40000E100E080B483B000AF03463960FB7175
:1063040097F90730002B0BDA3B68DAB20C49FB79BA
:1063140003F00F03043B5201D2B20B441A7609E096
:106324003B68DAB2074997F907305201D2B20B44FD
:1063340083F8002300BF0C37BD465DF8047B70472B
:1063440000ED00E000E100E080B400AFBFF34F8F48
:10635400054BDB6803F4E0620349044B1343CB6051
:10636400BFF34F8F00BFFDE700ED00E00400FA0526
:1063740041DF704700BF184680B483B000AFEFF32D
:1063840010833B603B687B6072B67B6818460C37B1
:10639400BD465DF8047B704780B400AF62B600BFB1
:1063A400BD465DF8047B704780B584B000AF78606B
:1063B400FFF7E2FFF860164B9B68002B1BD1144BD0
:1063C40001229A60134BD3F88020134B1340104AD8
:1063D4001360104B104AC3F880200E4BD3F884305E
:1063E4000B4A53600B4B4FF0FF32C3F884207B6899
:1063F40000221A7002E07B6801221A70FB68002BED
:1064040001D1FFF7C9FF002318461037BD4680BDF0
:10641400786B002000E100E0FC06FFBD80B584B08D
:1064240000AF0346FB710F4B9B68002B15D0FB7923
:10643400002B12D1FFF7A0FFF8600B4A094B1B6831
:106444001360094A074B5B685360064B00229A604D
:10645400FB68002B01D1FFF79FFF0023184610377C
:10646400BD4680BD786B002000E100E080B584B0BB
:1064740000AF78607B68002B0AD0074B43F0010320
:10648400FB607B689B01BB60FB68B868984700E0D1
:1064940000BF1037BD4680BD902D050080B483B089
:1064A40000AF78604FF0A04318460C37BD465DF846
:1064B400047B704780B584B000AF7860084611460D
:1064C4001A460346FB700B46BB7013467B703B1D9C
:1064D4001846FFF7E3FFF860FA78BB785B001A43CD
:1064E4007B789B001A433B7E1B0242EA03013B7FFD
:1064F4001B047A681943FB6802F5E07243F8221022
:1065040000BF1037BD4680BD80B584B002AF78604F
:1065140000230193002300930023012201217868C2
:10652400FFF7C8FF00BF0837BD4680BD80B584B003
:1065340002AF78600B46FB70FA78002301930023C6
:1065440000931346002200217868FFF7B3FF00BFD1
:106554000837BD4680BD80B584B000AF78603B1D70
:106564001846FFF79BFFF8607B68012202FA03F3E9
:106574001946F86800F027F800BF1037BD4680BD03
:1065840080B584B000AF78603B1D1846FFF786FFE6
:10659400F860F86800F00AF802467B6822FA03F310
:1065A40003F0010318461037BD4680BD80B483B0A4
:1065B40000AF78607B68D3F8103518460C37BD46B9
:1065C4005DF8047B704780B483B000AF78603960B5
:1065D4007B683A68C3F80C2500BF0C37BD465DF8EC
:1065E400047B704780B400AF034BD3F804351846DE
:1065F400BD465DF8047B704700B000407ADF704709
:1066040000BF18467CDF704700BF184680B586B0CF
:1066140000AF786007F10F031846FFF7C5FE7861F5
:106624007B69002B04D00C4A762178691FF0FEFCAC
:106634007B689847FB7B1846FFF7F0FE38613B699F
:10664400002B04D0044A782138691FF0EFFC00BF06
:106654001837BD4680BD00BF582B050080B483B0F9
:1066640000AF786039607A683B68D31A002B03DA8C
:106674003A687B68D31A02E07A683B68D31A1846F2
:106684000C37BD465DF8047B704780B582B000AF1F
:1066940078607B68002B0AD04FF47A70FFF7E6FE2F
:1066A4007B68013B7B607B68002BF5D100E000BF79
:1066B4000837BD4680BD80B582B000AF78603960D0
:1066C400786807F01EF800BF0837BD4680BD00009B
:1066D40080B582B000AF012028F0BAFC78607B68F6
:1066E400002B04D00C4A702178681FF09FFC6420B2
:1066F400FFF7CBFF012028F0DDFC38603B68002B5E
:1067040004D0054A722138681FF090FC00BF184677
:106714000837BD4680BD00BF802B050090B58DB005
:1067240002AF364B1B6803F48043002B0FD0344B6D
:106734001B68032B0BDD334CFFF754FF0246324B2F
:10674400009313467722214604200AF08DFB07F1BB
:106754002003184617F0CEFB284B1B6803F4804334
:10676400002B11D0264B1B68032B0DDD254CFFF7A6
:1067740039FF02463B8C0193244B00931346792244
:10678400214604200AF070FB3B1D00221A605A6067
:106794009A60DA601A615A619A612323BB60FF230D
:1067A4003B734FF4FA63BB614FF4FA73FB6102234A
:1067B4003B714FF4FA73BB6080233B7328233B6126
:1067C40005233B754FF4C873BB614FF4C873FB6179
:1067D4003B1D1946012028F09FFC78627B6A002B40
:1067E40004D00B4A8221786A1FF020FC4FF4967083
:1067F400FFF74BFF00BF2C37BD4690BD4833002048
:106804004C330020022C05000C2C0500282C05001C
:10681400802B050080B588B000AF3B4600221A608B
:106824005A609A60DA601A615A619A6123237B6024
:10683400FF233B724FF4FA637B614FF4FA73BB613D
:1068440001233B704FF4FA737B60FF233B722823D0
:10685400FB6005233B744FF4C8737B614FF4C8732A
:10686400BB613B461946012028F056FCF861FB69E0
:10687400002B04D0044A9221F8691FF0D7FB00BF13
:106884002037BD4680BD00BF802B050080B582B097
:1068940000AF012028F00EFC78607B68002B04D048
:1068A400044A982178681FF0C1FB00BF0837BD4631
:1068B40080BD00BF802B050090B589B002AF786021
:1068C400012028F0F7FB78617B69002B04D01C4A77
:1068D4009F2178691FF0AAFB1A4B1B6803F48043BD
:1068E400002B13D0184B1B68032B0FDD174CFFF73D
:1068F40079FE02467B680F331B780193144B009397
:106904001346A022214604200AF0AEFA7B680F3316
:106914001B785AB20F4B1A700F4B002245F69A118E
:1069240018462AF0B1F838613B69FB60FB68002B1C
:1069340002D0F8681FF018FB00BF1C37BD4690BD9D
:10694400802B0500483300204C330020022C050026
:10695400402C05009C340020A034002080B483B077
:1069640000AF7860034B1B7818460C37BD465DF8C2
:10697400047B7047E934002090B587B002AF78609B
:106984000B46FB701F4B1B6803F48043002B11D094
:106994001D4B1B68032B0DDD1C4CFFF723FE024629
:1069A400FB7801931A4B00931346AF22214604202F
:1069B4000AF05AFAFB78002B0FD0012028F048FB8C
:1069C400B860BB68002B04D0124AB221B8681FF02B
:1069D4002DFB114B01221A700EE0012028F06AFBF6
:1069E400F860FB68002B04D00A4AB721F8681FF04E
:1069F4001DFB094B00221A70FB7818461437BD465C
:106A040090BD00BF483300204C330020022C050009
:106A1400502C0500802B0500E934002090B583B08C
:106A240002AF0E4B1B6803F48043002B0FD00C4BBA
:106A34001B68032B0BDD0B4CFFF7D4FD02460A4BFE
:106A440000931346C022214604200AF00DFA0FF0E9
:106A5400BFFA00BF0437BD4690BD00BF48330020D5
:106A64004C330020022C0500682C050080B582B050
:106A740000AF78607B681B781C2B01D1FFF7CEFF39
:106A84007B681B780A2B01D1FFF722FE7B681B78F9
:106A9400022B01D1FFF71CFE00BF0837BD4680BDA5
:106AA40080B582B000AF0C4B1B88BA1D1146184646
:106AB40013F01EFF0346002B06D1FB884FF6FF722E
:106AC400934203D1002302E0002300E0012318468F
:106AD4000837BD4680BD00BFD834002090B587B0CC
:106AE40002AF78602B4B1B6803F48043002B11D05A
:106AF400294B1B68032B0DDD284CFFF773FD024661
:106B04007B680193264B00931346EA222146042016
:106B14000AF0AAF9FFF7C4FF0346002B1CD0002398
:106B2400FB607B68012B2FD81E4B1B78002B14BFF6
:106B340001230023DBB283F00103DBB203F0010382
:106B4400DAB2184B1A70174B1B78052219461648EF
:106B540027F0FCF9F86018E00E4B1B6803F480433F
:106B6400002B12D00C4B1B68032B0EDD0B4CFFF7D4
:106B740039FD02460D4B009313464FF482722146B1
:106B840004200AF071F900E000BF00BF1437BD46CD
:106B940090BD00BF483300204C330020022C050078
:106BA400842C0500EA340020D8340020982C0500F9
:106BB40080B584B000AF78607B682F2B08DD7B68DC
:106BC400342B05DC7B68303BFB60F868FFF786FFFD
:106BD40000BF1037BD4680BD90B585B002AF786068
:106BE4000B46FB7013463B80224B1B6803F4804327
:106BF400002B10D0204B1B68002B0CDD1F4CFFF723
:106C0400F1FC02461E4B009313464FF48A72214650
:106C140001200AF029F9FB78012B07D0022B21D09F
:106C2400002B07D1174B01221A701EE0154B0022CE
:106C34001A701AE00F4B1B6803F48043002B13D027
:106C44000D4B1B68002B0FDD0C4CFFF7CBFC0246F1
:106C54000D4B0093134640F22712214601200AF0FF
:106C640003F901E000BF00E000BF00BF0C37BD46E0
:106C740090BD00BF483300204C330020022C050097
:106C8400BC2C0500EA340020D82C050090B585B052
:106C940002AF03463960FB800D4B1B6803F480434D
:106CA400002B10D00B4B1B68002B0CDD0A4CFFF79C
:106CB40099FC0246094B0093134640F22D122146DB
:106CC40001200AF0D1F800BF0C37BD4690BD00BFCB
:106CD400483300204C330020022C0500EC2C050026
:106CE40090B589B002AF444B1B6803F48043002B7A
:106CF40010D0424B1B68032B0CDD414CFFF772FC98
:106D04000246404B009313464FF49A7221460420E6
:106D14000AF0AAF800237B6142E03B497A691346F2
:106D24005B0013449B000B440433384A1A60364911
:106D34007A6913465B0013449B000B440833344ABE
:106D44001A607A6913465B0013449B002E4A13446D
:106D54007A6992B21146184627F02AFAB860BB68DD
:106D6400002B05D02B4A40F23B11B8681FF05EF9A6
:106D740025497A6913465B0013449B000B441B8826
:106D8400184613F041FF78607B68002B05D0214A38
:106D94004FF49E7178681FF049F97B6901337B6178
:106DA4007B69012BB9D91C4B1C4A5A601A4B1C4AEB
:106DB4009A607B699BB21946174827F097F83861A7
:106DC4003B69002B05D0134A40F2411138691FF08A
:106DD4002DF9114B1B88184613F016FFF860FB6859
:106DE400002B05D00B4A4FF4A171F8681FF01EF96F
:106DF40000BF1C37BD4690BD483300204C330020F3
:106E0400022C0500082D0500C03400206169020031
:106E14007D690200802B0500D8340020DD6B020060
:106E2400916C020080B590B000AF1D4B1B687B6273
:106E340007F1240107F128030422184600F0DCFBC3
:106E4400F863FB6B002B05D0164A40F24B11F86B2C
:106E54001FF0ECF83B462422002118462BF093FD4A
:106E640001233B700723FB7007233B7207F12803C0
:106E7400FB600D4B3B610D4B3B623B460C49184696
:106E84000EF0AAFFB863BB6B002B05D0054A4FF484
:106E9400AA71B86B1FF0CAF800BF4037BD4680BD69
:106EA400282D0500802B0500716A0200E56C0200A4
:106EB400E834002080B586B000AF3B78012262F34D
:106EC40003033B703B78012262F307133B703B469C
:106ED400062217491846FFF795FB78617B693B61E9
:106EE4003B69002B02D038691FF03EF83B1D082295
:106EF400002118462BF047FDC823BB804FF448738C
:106F0400FB8000233B814FF4C8737B813B1D1846F3
:106F1400FFF774FB78617B69FB60FB68002B02D090
:106F2400F8681FF021F800BF1837BD4680BD00BFC8
:106F34002C2D050090B589B002AF264A07214FF4E5
:106F4400C04009F075FF244B1B6803F48043002BF9
:106F540010D0224B1B68032B0CDD214CFFF742FBA6
:106F64000246204B009313464FF4B9722146042085
:106F740009F07AFF1EF06CFA78617B693B613B692A
:106F8400002B02D038691EF0EFFF00237B603B1D0D
:106F9400194601201EF09AFB78617B69FB60FB684F
:106FA400002B02D0F8681EF0DFFF3B1D18461EF0D0
:106FB4001BFC78617B69BB60BB68002B02D0B8689E
:106FC4001EF0D2FFFFF776FFFFF72CFF00BF1C3740
:106FD400BD4690BDF90D0300483300204C3300201A
:106FE400022C0500342D0500B0B59CB004AF64211B
:106FF4008A4800F0ABFA0EF049FFB865BB6D002B70
:1070040005D0874A40F28B11B86D1FF00FF8854BFD
:107014001B7883F00103DBB2002B55D007F11C036E
:1070240000221A605A609A60DA601A615A617E4BD3
:10703400FB617E4B3B627E4B7B627E4BBB627E4B35
:107044003B6307F11C03184600F048FCF864FB6C32
:10705400002B05D0724A4FF4CC71F86C1EF0E6FF99
:107064003B4600221A605A609A60DA601A615A61DB
:107074009A6123237B60FF233B724FF4FA637B61A5
:107084004FF4FA73BB6101233B704FF4FA737B60D6
:10709400FF233B722823FB6005233B744FF4C87322
:1070A4007B614FF4C873BB613B461946012028F04D
:1070B40033F8B864BB6C002B35D0594A40F2A311A5
:1070C400B86C1EF0B3FF2EE003210B20FFF72EFA5D
:1070D4000B20FFF755FA0346002B07D10EF04EFFA5
:1070E4004FF4FA70FFF7D1FAFFF798FC012027F06C
:1070F400AFFF78657B6D002B05D0494A40F2B11192
:10710400786D1EF093FF6420FFF7BFFA012027F08B
:10711400D1FF38653B6D002B05D0414A40F2B311D5
:10712400386D1EF083FF01F08DFA7864434B1B68C1
:1071340003F48043002B6DD0414B1B68032B69DDA6
:107144006B461D4610233B643B6C5B00581C034696
:10715400013BFB6301464FF000024FF000034FF088
:107164000004D40044EA5174CB0001464FF00002FD
:107174004FF000034FF00004D40044EA5174CB00F4
:10718400C31DDB08DB00ADEB030D04AB0033BB63B5
:107194000023FB6523E07A6CFB6D13441B7887F8AE
:1071A4003730284B1A6897F837301B09DBB203F0E5
:1071B4000F031A44FB6D5B001178BA6BD154214B59
:1071C4001A6897F8373003F00F031A44FB6D5B001D
:1071D40001331178BA6BD154FB6D0133FB65FA6D41
:1071E4003B6C9A42D7D33B6C5B00BA6B0021D15401
:1071F400154CFFF7F7F90246BB6B0293134B01934F
:10720400134B0093134640F2B7122146042009F0B1
:107214002BFEAD4600BF6037BD46B0BDB56B020066
:10722400802B0500E8340020216702001968020061
:1072340091680200BD680200982D050048330020C3
:107244004C33002044330020022C05006C2D050033
:107254007C2D050080B584B000AFF860B9607A6019
:10726400FFF772F87A68B968F8681EF093FE00BFF9
:107274001037BD4680BD000080B500AF4FF0A0437D
:107284000A4AC3F82C270A4B4FF00042C3F80423E0
:10729400074B0022C3F87C2107210620FFF72AF8B8
:1072A4000620FFF70DF80023184680BD0C000300EC
:1072B4000060004080B500AF0D4B0022C3F87C2174
:1072C4000C4B1A680C4BD3F8043519461046FFF7DB
:1072D400C5F9024643F233339A4207D9064BD3F831
:1072E4000435044A13600020FFF7F8FB00BF80BD9B
:1072F400006000409834002000B0004080B588B0A1
:1073040000AF2C4B3E221A702A4B2B4A5A60294B51
:107314002A4A9A602A4B3B6002233B7104237B7107
:10732400244BBB6010233B733B460021184627F0D7
:1073340023FFF861FB69BB61BB69002B02D0B8690C
:107344001EF012FE002027F0B5FE78617B69002B49
:1073540005D01C4A40F2072178691EF067FE01201F
:1073640027F0A8FE38613B69002B05D0154A4FF47D
:10737400027138691EF05AFE1220FFF7C5F8132077
:10738400FFF7C2F81420FFF7BFF81520FFF7BCF889
:107394001220FFF7E0F81320FFF7DDF81420FFF7C1
:1073A400DAF81520FFF7D7F8002318462037BD4632
:1073B40080BD00BFEC340020882D0500A82D0500F9
:1073C400B82D0500802B050080B584B000AF094BB3
:1073D4007B603B1D18462AF043FDF860FB68BB60E8
:1073E400BB68002B02D0B8681EF0BEFD00BF10378A
:1073F400BD4680BDC82D050080B586B000AF78605D
:10740400012027F025FE78617B69002B05D0194AFD
:1074140040F23B2178691EF009FE6420FFF735F93C
:10742400012027F047FE38613B69002B05D0114A43
:1074340040F23E2138691EF0F9FD0F4B93F90030FC
:10744400DBB2013BDBB25AB20B4B1A700A4B93F915
:107454000030002B0ADC094B184629F049FBF86080
:10746400FB68002B02D0F8681EF07EFD00BF1837C1
:10747400BD4680BD802B05009C340020A034002034
:1074840080B584B000AF29F095FAF860FB68BB6062
:10749400BB68002B02D0B8681EF066FD084A0121C3
:1074A400084829F0BDFAF860FB687B607B68002B14
:1074B40002D078681EF058FD00BF1037BD4680BD6D
:1074C400FD730200842D050080B584B000AF002355
:1074D400FB60FB68BB60BB68002B02D0B8681EF081
:1074E40043FDFFF7CDFFFFF76FFFFFF707FFF860DE
:1074F400FB687B607B68002B02D078681EF034FD4B
:10750400FFF718FD0348FFF781F8FFF7B5FEFEF714
:107514002FFFFCE7ED6F020080B584B000AF786008
:10752400094B1B68002B0BD01AF0B8FFF860FB68FE
:10753400002B04DB044B1B68F8689847F4E700BF92
:1075440000BF1037BD4680BDF83400202DE9F0435C
:1075540085B000AF78603960224A7B681360224AA4
:107564000121224829F05CFAF860FB68002B04D062
:107574001F4A4621F8681EF059FD1E4E3B681A4604
:107584004FF00003550CD40341F26F724FF0000327
:10759400AB4208BFA24211D23B684FF000044FEA4D
:1075A40053494FEAC3384FF47A724FF00003404610
:1075B40049462BF073F803460C4600E005230022ED
:1075C4001946304629F060FAB860BB68002B04D035
:1075D400074A4721B8681EF029FD00BF1437BD468D
:1075E400BDE8F083F83400201D750200E42D050089
:1075F400E82D0500FC34002080B584B000AFF860AD
:10760400B9601346FB71FB79082B01D9092317E0F4
:10761400FB791A46B968F8682BF08CF9FB79FA689B
:10762400D018FB79C3F108031A4600212BF0ABF9FB
:10763400FB6808330822044918462BF07BF9002321
:1076440018461037BD4680BD6000001080B400AFFE
:1076540006231846BD465DF8047B704780B584B0A8
:1076640000AF786000233B81064BFB6007F1080301
:107674001A46796844F20200FFF7ECFD00BF1037A8
:10768400BD4680BD442E050080B58EB000AF0346D4
:107694003960FB71404B1B7883F00103DBB2002B94
:1076A40072D1FB79012B02D0032B61D071E000234E
:1076B4007B6107F11403194601201EF007F8F862F4
:1076C400FB6ABB62BB6A002B02D0B86A1EF04CFC9A
:1076D40007F1140318461EF087F8F862FB6A7B6210
:1076E4007B6A002B02D0786A1EF03EFC0123FB600B
:1076F40007F10C0207F112031146184617F05CFA61
:1077040038623B6A002B02D0386A1EF02DFC7B8A5B
:10771400184616F063FE03461A4607F10B03194692
:10772400104616F0C7FFF861FB69002B02D0F86918
:107734001EF01AFC10F0A2FDFB7A1946002010F08E
:107744001DFF05F021FFF862FB6ABB61BB69002BDA
:1077540002D0B8691EF008FC0F4B00221A700F4BC0
:107764001B68002B12D00D4B1B68984700BF0DE01F
:107774001DF06EFE78637B6B3B633B6B002B07D085
:10778400386B1EF0F1FB03E000BF02E000BF00E035
:1077940000BF3837BD4680BD1C3500203837002077
:1077A40080B584B000AF0E4B01221A7005F04AFF79
:1077B400F860FB68BB60BB68002B02D0B8681EF0A1
:1077C400D3FB1DF099FEF860FB687B607B68002B9F
:1077D40002D078681EF0C8FB00BF1037BD4680BDDC
:1077E4001C35002080B500AF044B19690323002227
:1077F40003481FF07BFB0346184680BD3837002042
:107804005037002080B586B000AF78600023FB7548
:107814007B681B78013B092B53D801A252F823F053
:10782400BF7802004D780200C7780200C7780200D2
:10783400B1780200C77802006D780200C7780200B0
:10784400C77802008B780200214B1B7883F0010378
:10785400DBB2002B05D0FFF7C5FF1E4B5B689847D2
:1078640032E0FFF79DFF2FE01A4B5B6910221946A7
:1078740019481FF0D2FBF860FB68002B23D0F8688E
:107884001EF072FB1FE07B68DA687B689B68194610
:1078940010460EF015FB38613B69002B02D03869A5
:1078A4001EF062FB0A4B01221A700DE0094BDB68E3
:1078B4007A68D2681046984706E0064B9B6898475A
:1078C40002E000BF00E000BF00BF1837BD4680BD26
:1078D400E43800203837002050370020B0B58CB091
:1078E40002AF78602F4A07F1080307CA03C31A805E
:1078F4000233120C1A702C4A7B6814461D460FCDB5
:107904000FC495E8030084E80300274B5B69002B50
:1079140001D1072341E0254925481FF0D9FA7862AF
:107924007B6A002B01D07B6A37E007F10802214B08
:10793400009313461D4A1E491F481FF038FA386247
:107944003B6A002B01D03B6A27E01C4821F070F809
:107954000346194618481FF093FAF861FB69002B97
:1079640001D0FB6919E0164821F084FBB861BB69BA
:10797400002B01D0BB6910E0114821F0BDFB034688
:1079840019460D481FF07CFA78617B69002B01D001
:107994007B6902E0FFF726FF034618462837BD46F9
:1079A400B0BD00BF482E050038370020C438002081
:1079B4008438002009780200503700202035002048
:1079C400E836002080B483B000AF0346FB800F4B41
:1079D4001B7883F00103DBB2002B01D001230FE0FD
:1079E400FB88002B01D100230AE0094B1A88FB888D
:1079F40013409BB2FA889A4201D1012300E000238C
:107A040018460C37BD465DF8047B7047EC380020FF
:107A1400EE38002080B483B000AF786039607B68B2
:107A240007EE903AF8EE677A9FED157A27EE877A9B
:107A34003B6807EE903AF8EE677AB4EEE77AF1EE37
:107A440010FA01D5012315E07B6807EE903AF8EEB1
:107A5400677A9FED0C7A27EE877A3B6807EE903AB7
:107A6400F8EE677AB4EEE77AF1EE10FA01DD01235D
:107A740000E0002318460C37BD465DF8047B7047D0
:107A84009A99993FCDCC4C3F90B591B000AF7860B6
:107A940039600023FB637B681B6807EE903AF8EEBD
:107AA400676AC64BD3ED007A9FEDC56A86EE277AE6
:107AB400C6EE877A9FEDC37AC7EE876A16EE900A00
:107AC4002AF034FC03460C4644EC103B2AF094FDA7
:107AD40054EC103B184621462AF012FC0346BB63C3
:107AE4007B681B6807EE903AF8EE676AB34BD3EDF8
:107AF400007A9FEDB56A86EE277AC6EE877A9FED07
:107B0400B17AC7EE876A16EE900A2AF00FFC034694
:107B14000C4644EC103B2AF06FFD54EC103B184625
:107B240021462AF0EDFB03467B63BB6B0F2B01D987
:107B34000F23BB637B6B1F2B01D91F237B637B6BE1
:107B44000F2B01D810237B63BB6BA04A02FB03F30A
:107B540007EE903AB8EE677A984BD3ED007AC7EE09
:107B6400276A16EE900A2AF0E1FB03460C4644EC21
:107B7400103B2AF041FD54EC103B184621462AF0F4
:107B8400BFFB0346BB627B6B914A02FB03F307EE28
:107B9400903AB8EE677A894BD3ED007AC7EE276A3C
:107BA40016EE900A2AF0C2FB03460C4644EC103B46
:107BB4002AF022FD54EC103B184621462AF0A0FB83
:107BC40003467B627B681B681A46BB6AD31A83EA46
:107BD400E372A2EBE3727B681B6819467B6ACB1ADB
:107BE400002BB8BF5B429A4214DCBB6BDAB23B6831
:107BF4001A707B681B68FB617B68BA6A1A607B68D1
:107C04001B681946F869FFF705FF0246FB6B13442E
:107C1400FB6313E07B6BDAB23B681A707B681B680A
:107C24003B627B687A6A1A607B681B681946386A0B
:107C3400FFF7F0FE0246FB6B1344FB637B689B6813
:107C440007EE903AF8EE676A5C4BD3ED007A9FED4D
:107C54005C6A86EE277AC6EE877A9FED5A7AC7EE7B
:107C6400876A16EE900A2AF061FB03460C4644EC40
:107C7400103B2AF0C1FC54EC103B184621462AF074
:107C84003FFB03463B637B689B6807EE903AF8EE44
:107C9400676A4A4BD3ED007A9FED4B6A86EE277AEA
:107CA400C6EE877A9FED477AC7EE876A16EE900A8A
:107CB4002AF03CFB03460C4644EC103B2AF09CFCA7
:107CC40054EC103B184621462AF01AFB0346FB628B
:107CD4003B6B0F2B01D90F233B63FB6A1F2B01D98D
:107CE4001F23FB62FB6A0F2B01D81023FB623B6B43
:107CF400364A02FB03F307EE903AB8EE677A2F4B4D
:107D0400D3ED007AC7EE276A16EE900A2AF00EFB2E
:107D140003460C4644EC103B2AF06EFC54EC103B3A
:107D2400184621462AF0ECFA0346BB61FB6A284A4E
:107D340002FB03F307EE903AB8EE677A1F4BD3EDDC
:107D4400007AC7EE276A16EE900A2AF0EFFA034685
:107D54000C4644EC103B2AF04FFC54EC103B184604
:107D640021462AF0CDFA03467B617B689B681A465C
:107D7400BB69D31A83EAE372A2EBE3727B689B6864
:107D840019467B69CB1A002BB8BF5B429A4221DCAF
:107D94003B6BDAB23B689A707B689B68FB607B68DC
:107DA400BA699A607B689B681946F868FFF732FEE7
:107DB4000246FB6B1344FB6320E000BFE83800205D
:107DC40000007F4600007A440000FF470006F900E7
:107DD4000030C807FB6ADAB23B689A707B689B681C
:107DE4003B617B687A699A607B689B68194638694D
:107DF400FFF710FE0246FB6B1344FB63FB6B184654
:107E04004437BD4690BD00BF90B591B000AF7860D7
:107E140039600023FB633B685B78002B06D13B6829
:107E2400DB78002B02D10023BB6331E07B681B6944
:107E340007EE903AF8EE676A3B685B781A463B684F
:107E4400DB789B00D31A07EE903AB8EEE77A784BCA
:107E540093ED006ADFED775AC5EE867A27EE277A2E
:107E6400C6EE877A9FED747AC7EE876A16EE900A9B
:107E74002AF05CFA03460C4644EC103B2AF0BCFBA7
:107E840054EC103B184621462AF03AFA0346BB63E9
:107E94003B685B78002B06D13B68DB78002B02D172
:107EA40000237B6332E07B681B6907EE903AF8EEAF
:107EB400676A3B685B781A463B68DB789B00D31A99
:107EC4001B0107EE903AB8EEE77A594B93ED006A3E
:107ED400DFED585AC5EE867A27EE277AC6EE877A02
:107EE4009FED557AC7EE876A16EE900A2AF01EFABD
:107EF40003460C4644EC103B2AF07EFB54EC103B4A
:107F0400184621462AF0FCF903467B63BB6B0F2B12
:107F140001D90F23BB637B6B1F2B01D91F237B6309
:107F24007B6B0F2B01D810237B633B685B781A466D
:107F34003B68DB789B00D31A1A46BB6B03FB02F247
:107F440013461B029B1A07EE903AF8EE676A384B09
:107F540093ED007AC6EE877A9FED377A67EE877ADB
:107F640017EE900A2AF0E2F903460C4644EC103B63
:107F74002AF042FB54EC103B184621462AF0C0F983
:107F84000346BB623B685B781A463B68DB789B0020
:107F9400D31A1A467B6B03FB02F213461B029B1A8D
:107FA4001B0107EE903AF8EE676A214B93ED007AD5
:107FB400C6EE877A9FED207A67EE877A17EE900AED
:107FC4002AF0B4F903460C4644EC103B2AF014FBA7
:107FD40054EC103B184621462AF092F903467B6282
:107FE4007B681B691A46BB6AD31A83EAE372A2EB65
:107FF400E3727B681B6919467B6ACB1A002BB8BFF6
:108004005B429A421ADCBB6BDAB23B681A717B683A
:108014001B69FB617B68BA6A1A617B681B69194634
:10802400F869FFF7F7FC0246FB6B1344FB6319E0A6
:10803400E838002000007F4300007A447B6BDAB20A
:108044003B681A717B681B693B627B687A6A1A61B8
:108054007B681B691946386AFFF7DCFC0246FB6B38
:108064001344FB637B685B6907EE903AF8EE676A3A
:108074003B685B781A463B68DB789B00D31A07EEB3
:10808400903AB8EEE77A854B93ED006ADFED845AB7
:10809400C5EE867A27EE277AC6EE877A9FED817A37
:1080A400C7EE876A16EE900A2AF040F903460C469A
:1080B40044EC103B2AF0A0FA54EC103B184621463D
:1080C4002AF01EF903463B637B685B6907EE903A2E
:1080D400F8EE676A3B685B781A463B68DB789B007E
:1080E400D31A1B0107EE903AB8EEE77A6B4B93ED87
:1080F400006ADFED6B5AC5EE867A27EE277AC6EE64
:10810400877A9FED687AC7EE876A16EE900A2AF09E
:108114000DF903460C4644EC103B2AF06DFA54EC7E
:10812400103B184621462AF0EBF80346FB623B68F5
:108134005B78002B07D13B68DB78002B03D100234D
:108144003B630023FB623B6B0F2B01D90F233B6383
:10815400FB6A1F2B01D91F23FB62FB6A0F2B01D87B
:108164001023FB623B685B781A463B68DB789B0014
:10817400D31A1A463B6B03FB02F213461B029B1AEB
:1081840007EE903AF8EE676A444B93ED007AC6EE38
:10819400877A9FED447A67EE877A17EE900A2AF081
:1081A400C5F803460C4644EC103B2AF025FA54EC7F
:1081B400103B184621462AF0A3F80346BB613B68EE
:1081C4005B781A463B68DB789B00D31A1A46FB6A35
:1081D40003FB02F213461B029B1A1B0107EE903AA3
:1081E400F8EE676A2D4B93ED007AC6EE877A9FED21
:1081F4002D7A67EE877A17EE900A2AF097F80346ED
:108204000C4644EC103B2AF0F7F954EC103B1846AA
:1082140021462AF075F803467B617B685B691A4640
:10822400BB69D31A83EAE372A2EBE3727B685B69EE
:1082340019467B69CB1A002BB8BF5B429A4214DC07
:108244003B6BDAB23B685A717B685B69FB607B68A5
:10825400BA695A617B685B691946F868FFF7DAFB0B
:108264000246FB6B1344FB6313E0FB6ADAB23B6820
:108274005A717B685B693B617B687A695A617B6888
:108284005B6919463869FFF7C5FB0246FB6B13446B
:10829400FB63FB6B18464437BD4690BDE8380020AD
:1082A40000007F4300007A4480B586B000AF0346E7
:1082B400B9607A60FB8100237B61FB89002B01D1CB
:1082C400022367E0354B1B7883F00103DBB2002BFC
:1082D40001D004235EE0BB68002B01D10E2359E0DA
:1082E4007B6800221A707B68FF225A707B68002228
:1082F4009A707B680022DA707B6800221A717B68AE
:1083040000225A71BB681A797B685A70BB681B7B60
:108314000233002B00DA03339B10DAB27B68DA7085
:108324007B68DB78072B02D97B680722DA707B68CD
:10833400DB789B00DAB2BB681A737968B868FFF718
:10834400A3FB02467B6913447B61FB891846FFF754
:1083540039FB0346002B08D07968B868FFF754FD51
:1083640002467B6913447B610EE0BB681B69002BEA
:10837400BB6800221A61BB6800225A617B68002234
:108384001A717B6800225A717B69002B01D001238A
:1083940000E0002318461837BD4680BDEC380020A5
:1083A40080B483B000AF03463960FB803B6807EEBE
:1083B400903AF8EE677A074BC3ED007A064AFB88D9
:1083C4001380064B01221A7000BF0C37BD465DF8BE
:1083D400047B7047E8380020EE380020EC38002099
:1083E40072DF704700BF184673DF704700BF18463E
:1083F40074DF704700BF184680B5A8B000AF0346CD
:108404003960FB8013467B71102200214C482AF00E
:10841400BAFA4C4B1B781A4613465B019B1A4A4A1C
:108424001344474A1360474B1B781A4613465B01B3
:108434009B1A464A1344424A9360414B1F229A8036
:108444003F4B1F229A813F4B1B780133DBB203F071
:108454000103DAB23B4B1A7007F154033C220021AA
:1084640018462AF090FA062387F85730FB88A7F8B5
:108474005030012387F852300123A7F8643007F104
:108484005003BB66FB88A7F844307B799BB2A7F8FE
:1084940048303B68FB6407F14403FB67012387F81A
:1084A400803007F108033C22002118462AF06BFAB9
:1084B40002233B72224B196807F15403244A1846DD
:1084C4001CF056FCC7F89800D7F89830002B03D05E
:1084D400D7F898001DF048FD194B996807F1080377
:1084E4001C4A18461CF044FCC7F89400D7F8943092
:1084F400002B03D0D7F894001DF036FD164A10491E
:108504001648FFF76DFFC7F89C00D7F89C30082B7E
:1085140006D100220A491148FFF762FFC7F89C0000
:10852400D7F89C30C7F89030D7F89030002B03D0A0
:10853400D7F890001DF018FD00BFA037BD4680BDE0
:10854400F03800207E390020003900204039002016
:10855400F4380020FC380020DC320020D83200201F
:1085640080B483B000AF786039607B689BB21A46F0
:10857400920013445B009AB2054B9A81044A3B680B
:10858400936000BF0C37BD465DF8047B704700BFA5
:10859400DC32002080B582B000AF094B1B7801218A
:1085A4001846FFF721FF78607B68002B02D07868BB
:1085B4001DF0DAFC06F02EFC00BF0837BD4680BD76
:1085C400D832002080B582B000AF084B1B78184623
:1085D400FFF70EFF78607B68002B02D078681DF0EF
:1085E400C3FC00BF0837BD4680BD00BFD8320020A1
:1085F40090B482B000AF7860064A7B68144618686D
:1086040059689A68DB680FC400BF0837BD4690BC40
:10861400704700BF8039002080B500AF08220549AB
:1086240005482AF087F90822044905482AF082F906
:1086340000BF80BD6000001080390020A40000103D
:108644008839002080B400AF024B1846BD465DF85F
:10865400047B70478039002080B483B000AF0023CE
:108664007B6013E00F4A7B68DB00134400225A80CE
:108674000C4A7B68DB00134400225A60094A7B6879
:10868400002102F833107B6801337B607B681F2B69
:10869400E8D9054B00221A6000BF0C37BD465DF8CF
:1086A400047B704790390020903A002080B485B054
:1086B40000AF03463960FB801B4B1B68FB60002343
:1086C400BB6026E0FB685A1EFA60002B01D11F2311
:1086D400FB60164AFB6812F8333083F00103DBB207
:1086E400002B01D0002318E0104AFB68DB00134480
:1086F4005B88FA889A4209D10C4AFB68DB00134470
:108704005B683A689A4201D1012306E0BB680133F1
:10871400BB60BB681F2BD5D9002318461437BD4650
:108724005DF8047B704700BF903A00209039002028
:1087340080B483B000AF03463960FB80124B1B68E2
:10874400124ADB001344FA885A800F4B1B680F4A05
:10875400DB0013443A685A600B4B1B680B4A012137
:1087640002F83310084B1B680133074A1360064BA9
:108774001B68202B02D1044B00221A6000BF0C3767
:10878400BD465DF8047B7047903A00209039002084
:1087940080B400AF034BD3F804351846BD465DF8EA
:1087A400047B704700B0004080B483B000AF7860B1
:1087B4007B68043318460C37BD465DF8047B70476C
:1087C40080B483B000AF78607B68013318460C37FF
:1087D400BD465DF8047B704780B483B000AF786019
:1087E4007B681B789B011BB203F4FE531AB27B68AF
:1087F4005B789B08DBB21BB213431BB29BB21846D7
:108804000C37BD465DF8047B704780B483B000AF7D
:1088140078600B467B807B681B7823F07F03DAB299
:108824007B681A707B681B785AB27B889B099BB261
:108834005BB203F07F035BB213435BB2DAB27B68D3
:108844001A707B685B7803F00303DAB27B685A70B2
:108854007B685B785AB27B889B005BB213435BB244
:10886400DAB27B685A7000BF0C37BD465DF8047BF2
:10887400704780B483B000AF78607B689B781A0639
:108884007B68DB781B041A437B681B791B02134348
:108894007A685279134318460C37BD465DF8047B59
:1088A400704780B483B000AF786039603B681B0EBA
:1088B400DAB27B689A703B681B0CDAB27B68DA70B8
:1088C4003B681B0ADAB27B681A713B68DAB27B68D0
:1088D4005A7100BF0C37BD465DF8047B704780B405
:1088E40083B000AF78607B681B7803F04003002BF3
:1088F400CCBF01230023DBB218460C37BD465DF81C
:10890400047B704780B483B000AF78600B46FB7083
:108914007B681B7823F04003DAB27B681A707B68AB
:108924001B785AB2FB789B015BB203F040035BB245
:1089340013435BB2DAB27B681A7000BF0C37BD46D2
:108944005DF8047B704780B483B000AF78607B68C7
:108954001B7803F03F03DBB218460C37BD465DF8C5
:10896400047B704780B483B000AF78600B46FB7023
:108974007B681B7823F03F03DAB27B681A707B684C
:108984001B785AB297F9033003F03F035BB21343E9
:108994005BB2DAB27B681A7000BF0C37BD465DF873
:1089A400047B704780B483B000AF78607B681B7829
:1089B40003F08003002BCCBF01230023DBB2184655
:1089C4000C37BD465DF8047B704780B483B000AFBC
:1089D40078600B46FB707B681B7803F07F03DAB288
:1089E4007B681A707B681B785AB2FB78DB015BB238
:1089F40013435BB2DAB27B681A7000BF0C37BD4612
:108A04005DF8047B704780B483B000AF78607B6806
:108A14001B7803F07F03DBB218460C37BD465DF8C4
:108A2400047B704780B483B000AF78600B46FB7062
:108A34007B681B7823F07F03DAB27B681A707B684B
:108A44001B785AB297F9033003F07F035BB21343E8
:108A54005BB2DAB27B681A7000BF0C37BD465DF8B2
:108A6400047B704780B483B000AF78607B685B7828
:108A740003F08003002BCCBF01230023DBB2184694
:108A84000C37BD465DF8047B704780B483B000AFFB
:108A940078600B46FB707B685B7803F07F03DAB287
:108AA4007B685A707B685B785AB2FB78DB015BB2F7
:108AB40013435BB2DAB27B685A7000BF0C37BD4611
:108AC4005DF8047B704780B483B000AF78607B6846
:108AD4005B789B011BB203F4FE531AB27B689B784C
:108AE4009B08DBB21BB213431BB29BB218460C3774
:108AF400BD465DF8047B704780B483B000AF7860F6
:108B04000B467B807B685B7823F07F03DAB27B685B
:108B14005A707B685B785AB27B889B099BB25BB2C4
:108B240003F07F035BB213435BB2DAB27B685A7023
:108B34007B689B7803F00303DAB27B689A707B68E6
:108B44009B785AB27B889B005BB213435BB2DAB268
:108B54007B689A7000BF0C37BD465DF8047B704794
:108B640080B483B000AF78607B689B78DB005BB235
:108B740003F018035AB27B68DB785B09DBB25BB2A3
:108B840013435BB2DBB218460C37BD465DF8047B79
:108B9400704780B483B000AF78600B46FB707B688D
:108BA4009B7823F00303DAB27B689A707B689B7826
:108BB4005AB2FB78DB08DBB25BB203F003035BB2AF
:108BC40013435BB2DAB27B689A707B68DB7803F09C
:108BD4001F03DAB27B68DA707B68DB785AB2FB7801
:108BE4005B015BB213435BB2DAB27B68DA7000BF3D
:108BF4000C37BD465DF8047B704780B483B000AF8A
:108C040078607B68DB7803F01F03DBB218460C370F
:108C1400BD465DF8047B704780B483B000AF7860D4
:108C24000B46FB707B68DB7823F01F03DAB27B68AA
:108C3400DA707B68DB785AB297F9033003F01F03CC
:108C44005BB213435BB2DAB27B68DA7000BF0C37F5
:108C5400BD465DF8047B704780B584B000AF786092
:108C64007B681B7883F00103DBB2002B04D07B46C6
:108C7400FB60F868FEF7F2FC7B68DB7901330122C4
:108C840002FA03F3013B18461037BD4680BD80B499
:108C940083B000AF78600B467B807B68C3F30C0223
:108CA4007B889A4209D27A887B68C3F30C03D21A70
:108CB4007B681344A3F5005306E07A887B68C3F30A
:108CC4000C03D21A7B68134418460C37BD465DF872
:108CD400047B704780B58EB000AF0346FB800B4623
:108CE4007B7113463B7107F10C032C2200211846BB
:108CF40029F049FE0E233B73FB883B827B7903F00A
:108D04000103DAB2BB7C62F30003BB743B79FB74EE
:108D140007F10C03184601F019FF00BF3837BD46B0
:108D240080BD80B58EB000AF78600B46FB7007F154
:108D34000C032C220021184629F025FE0F233B7337
:108D44007B683B61FB783B7507F10C03184601F027
:108D5400FDFE00BF3837BD4680BD000080B483B03F
:108D640000AF0346FB71074B5A68064B9B68F979C1
:108D740001FB03F3134418460C37BD465DF8047B2E
:108D8400704700BF943A002080B483B000AF03461C
:108D9400FB71074BDA68064B1B69F97901FB03F396
:108DA400134418460C37BD465DF8047B704700BF7A
:108DB400943A002080B586B000AF78607B681B7859
:108DC40083F00103DBB2002B04D07B463B6138699E
:108DD400FEF744FC7B689B8AFB817B68DB69DBB222
:108DE40003F001037B737B689A697B689B8819464F
:108DF4001046FFF74CFFB86000237B611FE0144A64
:108E04007B69DB0013445B68BA689A4214D1104A48
:108E14007B69DB0013445B88FA899A420CD10C4AC3
:108E24007B69DB0013445B787A7B9A4204D17B69CB
:108E3400DB00074A134406E07B6901337B617B69ED
:108E4400072BDCD9002318461837BD4680BD00BF68
:108E5400683C002080B584B000AF78600B46FB709E
:108E64007B681B7883F00103DBB2002B04D07B46C4
:108E7400FB60F868FEF7F2FB144B1B685A1C13499D
:108E84000A6003F00703DB00114A1344BB607B68EC
:108E94009A8ABB685A807B689A697B689B88194662
:108EA4001046FFF7F4FE0246BB685A607B68DB6934
:108EB400DBB203F00103DAB2BB685A70BB68FA781C
:108EC4001A7000BF1037BD4680BD00BF643C00204F
:108ED400683C002080B586B000AFF860B9603B60A4
:108EE4001346FB71FB79022B07D0FB79012B04D0CD
:108EF4007B467B617869FEF7B1FBFB689B6E002BB8
:108F040004D07B463B613869FEF7A8FB344B1B68F1
:108F1400386898470246FB689A66FB689B6E002B8C
:108F240001D1002357E0FB682C22B968184629F0C8
:108F340001FDFB6800229A643B689AB2FB68A3F8BF
:108F44004620BB689A69BB689B8819461046FFF7A0
:108F54009EFE0246FB689A61FB79012B1FD1214BCF
:108F64001A7DFB6883F84D20FB68002283F84E20AD
:108F7400FB68002283F84F20FB68002283F84C2012
:108F8400BB689A6AFB681A65FB686FF001029A6213
:108F9400FB68154A5A63FB68FA68DA6313E0FB68F6
:108FA4006FF001029A62FB68002283F86420FB6878
:108FB4000E4A5A65FB68FA68DA65FB680C4A5A631C
:108FC400FB68FA68DA63012003F05AFCFB68FA795B
:108FD40083F84420012318461837BD4680BD00BFDE
:108FE4005C3C0020943A0020E3A5020095A5020011
:108FF4004FA6020080B582B000AF7860124B1B68A8
:109004007A68926E104698477B682C33184605F0B0
:1090140013F87B6893F84430022B04D17B684C33FB
:10902400184605F009F86C220021786829F0ABFC99
:109034007B68002283F84420002003F021FC00BF59
:109044000837BD4680BD00BF603C002090B589B0A4
:1090540004AF78600B46FB707B68002B04D17B4621
:10906400FB60F868FEF7FAFA7B6800211846FFF700
:10907400F1FE7B681B6DFA7811461846FFF751FE26
:109084007868FFF7B7FF114B1B6803F00403002B4C
:1090940017D00F4B1B68032B13DD0E4CFFF778FB27
:1090A40001467B6893F844301A46FB780293019298
:1090B400094B00930B464FF4D6722146042007F067
:1090C400D3FE00BF1437BD4690BD00BF4833002017
:1090D4004C3300209D2E0500AC2E050080B582B0D7
:1090E40000AF78607B6801211846FFF7B3FE78680B
:1090F400FFF780FF00BF0837BD4680BD80B58EB046
:1091040000AF78607B6893F84430012B04D07B4631
:109114007B63786BFEF7A2FA01233B727B681B6DBD
:10912400FB6007F10803184601F010FD7868FFF7AB
:1091340061FF00BF3837BD4680BD000090B585B0E3
:1091440000AF78607B6893F84430022B04D07B46F0
:10915400FB60F868FEF782FA0C4B5B7D1846FFF75C
:10916400FDFDB8607B6803F14C0405F0FDF8024690
:10917400BB6813441946204604F087FF7B6801222C
:1091840083F8642000BF1437BD4690BD943A002094
:1091940090B585B000AF78607B6893F84430022BBB
:1091A40004D07B46FB60F868FEF758FA094B1B684D
:1091B400BB607B6803F12C0405F0D6F80246BB685B
:1091C40013441946204604F060FF00BF1437BD461F
:1091D40090BD00BF943A002090B585B000AF786090
:1091E4007B6893F84430012B04D07B46FB60F8681D
:1091F400FEF734FA7B681B7B012B08D17B689B7DCF
:109204001846FFF7C1FD02467B689A6305E000201B
:10921400FFF7BAFD02467B689A637B6803F12C046E
:1092240005F0A2F802467B689B6B1344194620465E
:1092340004F02BFF00BF1437BD4690BD80B582B04B
:1092440000AF786039607B68DB7D002B06D07B68DB
:109254009B7819463868FFF7E5FB0BE07B689B7841
:1092640019463868FFF74EFB7B68DB781946386887
:10927400FFF778FB7B681B7819463868FFF7A5FB76
:109284007B681B78002B1CD07B685B78082B0CBF99
:1092940001230023DBB219463868FFF7F6FB7B682D
:1092A4009B8819463868FFF727FC7B689B79194629
:1092B4003868FFF76EFC7B68DB7919463868FFF77E
:1092C400ABFC00BF0837BD4680BD80B586B000AF9B
:1092D400F860B9607A603B60FB681B78002B01D0B2
:1092E400042300E001237B617A697B681A44BB682C
:1092F4009A60FB6803F10C02BB681A60FB689A6A07
:10930400BB685A60B8680BF06DFD38613B69002B8F
:1093140005D1BB681A697B691A443B681A603B69CA
:1093240018461837BD4680BD80B58EB000AF786052
:10933400396000237B637B681B7B012B3ED107F1E3
:109344002C0306220021184629F01DFB7B689A880D
:1093540007F12C0311461846FFF757FA07F12C03BF
:1093640039681846FFF79DFA06237B6101233B7792
:109374007B689B8AFB8300233B6200233B7307F1DA
:109384002C033B617B681B6A7B6200233B767B6812
:10939400DB897B837B689B7D002B03D1002387F8CB
:1093A400283003E0084B5B7D87F8283007F10C0375
:1093B4006FF00101184601F013FB78637B6B1846CC
:1093C4003837BD4680BD00BF943A002080B485B0D4
:1093D40000AF78600B467B800023FB602AE01A4ACA
:1093E400FB686C2101FB03F3134444331B78012B0A
:1093F4001DD1154AFB686C2101FB03F3134414339C
:109404001A887B68DB899A4211D10F4AFB686C2168
:1094140001FB03F3134404331B887A889A4206D170
:10942400FB686C2202FB03F3074A134406E0FB6863
:109434000133FB60FB68032BD1DD0023184614378E
:10944400BD465DF8047B7047AC3A002080B485B01B
:1094540000AF78600023FB601FE0154AFB686C21B5
:1094640001FB03F3134444331B78022B12D1104A3B
:10947400FB686C2101FB03F3134414331A887B68E3
:109484009B8A9A4206D1FB686C2202FB03F3084ACA
:10949400134406E0FB680133FB60FB68032BDCDD4F
:1094A400002318461437BD465DF8047B704700BF9F
:1094B400AC3A002090B587B002AF78607B68DB7966
:1094C4005A1C7B68DB7D002B01D0082300E00C23B1
:1094D40002FB03F3BB607B68DB7D002B02D04FF4FF
:1094E400807201E04FF4C072BB689A421AD2264BD4
:1094F4001B6803F00403002B12D0244B1B68002BC1
:109504000EDD234CFFF744F90246BB680193214B5F
:109514000093134640F263222146012007F0A4FC85
:1095240000232DE00023FB6024E01B4AFB686C2130
:1095340001FB03F3134444331B78002B17D1FB685E
:109544006C2202FB03F3144A9818BB680222796860
:10955400FFF7C0FC034683F00103DBB2002B0DD1FF
:10956400FB686C2202FB03F30B4A134408E0FB681C
:109574000133FB60FB68032BD7DD00E000BF002351
:1095840018461437BD4690BD483300204C330020A4
:109594009D2E0500D02E0500AC3A002090B58BB06E
:1095A40002AFF860B9607A603B607868FFF74EFFFD
:1095B400F861FB69002B12D07B689A88FB699B8851
:1095C4009A42C0F0D9807B689A88FB699B889A424A
:1095D40005D90521F869FFF739FD0023FB61786897
:1095E400FFF7E8FBB861BB69002B0DD0BB691B78A2
:1095F400002B00F0C3807868FFF72EFB0346194662
:109604007868FFF791FEB9E0FB69002B0FD1786809
:10961400FFF750FFF861FB69002B08D1002178683F
:10962400FFF782FE02210020FFF77BFBA9E0564BE7
:109634001B6803F00403002B13D0544B1B68032B4B
:109644000FDD534CFFF7A4F802467B689B79019326
:10965400504B0093134640F2A7222146042007F002
:1096640003FCF869FFF794FDFB691B7B012B07D111
:10967400FB6993F86430002B02D1F869FFF75EFDB3
:10968400FB699A6C7B689B79194601238B401340D4
:10969400002B75D1FB699A6C7B689B791946012371
:1096A4008B401A43FB699A647B689A79FB69DB797E
:1096B4009A4214D1FB69DB799BB27A68D27D002A85
:1096C40001D0082200E00C2212FB03F39AB2BB681B
:1096D4009BB213449AB2FB69A3F846200EE07B6860
:1096E400DB7D002B01D0082200E00C22BB689A42EB
:1096F40004D00421F869FFF7A9FC42E0FB699B6EE2
:109704007A68927911467A68D27D002A01D00822BB
:1097140000E00C2201FB02F21344BA68F96818460F
:1097240029F008F9FB699C6CFB691846FFF794FA69
:1097340003469C4225D1FB69022283F86420FA691E
:10974400FB699B6C19461046FFF7EEFD7861FB69D7
:10975400986EFB69B3F846301946FA693B6800F025
:10976400FBFE7B69002B0CD1FB69002283F864208B
:10977400F869FFF7B3FC04E000BF02E000BF00E0BB
:1097840000BF2437BD4690BD483300204C33002031
:109794009D2E0500E42E050090B587B002AF7860D9
:1097A40039600023FB737B68002B23D07B689A1CF1
:1097B4003B681A6007F10F031946386805F0B5FFD6
:1097C400FB7B002B16D00E4B1B6803F00403002B0D
:1097D40010D00C4B1B68032B0CDD0B4CFEF7D8FF91
:1097E40002460A4B0093134640F2EB222146042022
:1097F40007F03AFBFB7B18461437BD4690BD00BF0B
:10980400483300204C3300209D2E0500F42E050023
:1098140080B596B000AFF860B9607A603B60FB68D1
:10982400002B04D17B467B65786DFDF717FFBB6881
:10983400002B04D17B463B65386DFDF70FFF3B6879
:10984400002B04D17B46FB64F86CFDF707FF3B68F3
:109854005B6A02337B623B6803F10C003B689B78D4
:10986400002B01D0012100E002213B685B78082B2A
:109874000CBF01230023DBB21A4607F1140305F0E1
:1098840061FF07F11403BB62FB68FB627B689BB258
:109894003B86BB68FB63FB6B3A8E13443B643B68BB
:1098A4005B7887F844303B681B7B022B0ED13B6806
:1098B4001B69002B04D17B46BB64B86CFDF7CEFE5C
:1098C4003B681B697B6310233B8701E000233B87D4
:1098D40007F12403184605F01DFF00BF5837BD46A5
:1098E40080BD80B483B000AF0346FB71FB79002BCD
:1098F40001D1042300E0082318460C37BD465DF867
:10990400047B704780B584B000AF786039603B68F1
:10991400DB695A787B68DA703B68DB691B78002B5B
:1099240014BF01230023DBB283F00103DBB203F095
:109934000103DAB27B689A703B68DA697B685A6221
:109944003B681B7B022B07D13A4B9B7D1846FFF7E4
:10995400C8FF03461A4606E03B681B7B1846FFF720
:10996400C0FF03461A467B685A703B68DB7A83F073
:109974000103DBB2002B0ED03B689B8A1A467B683E
:109984005B78C3F10F039A4205DC7B685B78082B94
:1099940001D107234AE03B689B8A1A467B685B78BF
:1099A400C3F10F039A4203DC3B68DB7A002B01D03E
:1099B400012300E0002303F00103DAB27B681A708C
:1099C4007B681B78002B16D03B689B8A1A467B6801
:1099D4005B7813440B33184A82FB03125210DB17D3
:1099E400D31AFB60FB68DBB2013BDAB27B68DA7145
:1099F4007B6800229A717B680022DA757B683A687A
:109A04000C3392E8030083E803003B689A697B689F
:109A14001A623B681A897B689A823B689A7A7B68E7
:109A24009A753B681A6A7B689A6200231846103755
:109A3400BD4680BD943A0020ABAAAA2A80B487B060
:109A440000AFF860B9607A60BB681A78FB689A70F6
:109A5400FB6800225A62BB689B680B2B03D8BB6867
:109A64001B7B002B01D0012300E0002303F0010342
:109A7400DAB2FB681A70FB6800225A70FB681B7824
:109A8400002B0DD0BB689B680733DB087B617B69C7
:109A9400DBB2013BDAB2FB68DA71FB6800229A712F
:109AA400FB680122DA75FB68BA680C33103292E85D
:109AB400030083E80300BB68DA89FB689A82BB6809
:109AC4009A69FB681A62BB681A7FFB689A75FB681F
:109AD4007A689A6200BF1C37BD465DF8047B704704
:109AE40080B58CB000AFF860B9607A60FB685B78D1
:109AF4001A467B681344FA68D27D002A01D00B22EF
:109B040000E00F229A4201D209232BE0FB685B7824
:109B14001A467B681A4407F1140307F11801F86820
:109B2400FFF7D3FBF862FB6A002B1AD1BB6A194614
:109B3400F868FFF783FBFB68DB7D002B06D07B69AD
:109B44007A68B968184628F0F5FE05E07969FB687B
:109B54007A68B868FFF75CFE07F1180318460BF043
:109B64006BF9FB6A18463037BD4680BD80B58CB0B2
:109B740000AF786039607B68DB7D002B01D008235F
:109B840000E00C23FB62FB6A3A6802FB03F3BB624E
:109B94007B68DB791A463B68934206D17B68B3F84D
:109BA40046301A46BB6AD31AFB623B68DAB27B685A
:109BB4009A71786807F1080307F10C01FA6AFFF754
:109BC40084FB78627B6A002B54D13B68002B13D151
:109BD4007B6893F84F3083F00103DBB2002B0BD08A
:109BE4007B689B699BB2C3F30C039AB27B689A802F
:109BF4007B68012283F84F207B68DB7D83F00103BF
:109C0400DBB2002B22D07B6893F84E3083F0010343
:109C1400DBB2002B1AD03B68002B04D07B463B629E
:109C2400386AFDF71BFD7B68986E7B68996E7B68CC
:109C3400B3F846301A467B685B78D31A1A467B68B9
:109C4400FFF7E6FD7B68012283F84E207B68FA6902
:109C540011461846FFF7F2FAB8687B689A6EBB6A39
:109C64001344FA6A194628F065FE07F10C031846F6
:109C74000BF0E2F87B6A002B0CBF01230023DBB25C
:109C840018463037BD4680BD80B584B000AF7860DB
:109C94000023FB607B6893F84C30FB721CE07B680C
:109CA4009A6CFB7A012101FA03F31340002B10D1C3
:109CB400FB7A19467868FFF759FF0346002B11D049
:109CC400FB680133FB60FB7A0133DAB27B6883F80B
:109CD4004C20FB7A0133FB727B68DB79FA7A9A4277
:109CE400DDD900E000BFFB6818461037BD4680BDD3
:109CF400B0B592B004AFF860B9607A60FB685B7885
:109D04001A467B681344BB62FB68DB7D002B02D0E0
:109D14004FF4807201E04FF4C072BB6A9A4201D2E0
:109D24000923B7E00023FB62EFF310837B6272B672
:109D340000233B6314E0594A3B6B6C2101FB03F3A2
:109D4400134444331B78002B07D13B6B6C2202FB7A
:109D540003F3524A1344FB6205E03B6B01333B635C
:109D64003B6B032BE7DD7B6A002B00D162B6FB6AF9
:109D7400002B01D104238DE0BB6A0122F968F86A43
:109D8400FFF7A8F80346002B00F08380FB6A9B6E64
:109D94007A68B968184628F0CDFD414B1B6803F07A
:109DA4000403002B6DD03F4B1B68032B69DD6B460E
:109DB4001D46FB6AB3F846303B623B6A5B00581CA5
:109DC4000346013BFB6101464FF000024FF00003E4
:109DD4004FF00004D40044EA5174CB0001464FF024
:109DE40000024FF000034FF00004D40044EA517421
:109DF400CB00C31DDB08DB00ADEB030D04AB00336C
:109E0400BB6100237B6321E0FB6A9A6E7B6B134486
:109E14001B78FB75244B1A68FB7D1B09DBB203F02E
:109E24000F031A447B6B5B001178BA69D1541E4B43
:109E34001A68FB7D03F00F031A447B6B5B0001334C
:109E44001178BA69D1547B6B01337B637A6B3B6ABB
:109E54009A42D9D33B6A5B00BA690021D154134CAE
:109E6400FEF796FC0246BB690293114B0193114B1A
:109E74000093134640F2F7322146042006F0F4FF23
:109E8400AD46F86AFFF700FFF86AFFF7A5F900236B
:109E940000E0042318463837BD46B0BDAC3A002074
:109EA400483300204C330020443300209D2E05000D
:109EB400082F0500182F050080B582B000AF0023DD
:109EC4007B6021E0144A7B686C2101FB03F313449B
:109ED40044331B78012B14D17B686C2202FB03F3FF
:109EE4000D4A13441846FFF7CFFE0346002B08D053
:109EF4007B686C2202FB03F3074A13441846FFF7FE
:109F04006BF97B6801337B607B68032BDAD900BF74
:109F14000837BD4680BD00BFAC3A002090B583B081
:109F240000AF00237B6050E02B4A7B686C2101FB6F
:109F340003F3134444331B78022B43D1264A7B6832
:109F44006C2101FB03F3134464331B78022B39D1D6
:109F54007B686C2202FB03F31F4A98181E4A7B6835
:109F64006C2101FB03F3134448331B681946FFF7C4
:109F7400DBF90346002B25D1174A7B686C2101FBD2
:109F840003F31344643300221A70134A7B686C2170
:109F940001FB03F3134448331C687B686C2202FB07
:109FA40003F30D4A13441846FEF756FE03469C423B
:109FB40008D17B686C2202FB03F3074A134418465A
:109FC400FFF78CF87B6801337B607B68032BABD98C
:109FD40000BF0C37BD4690BDAC3A002080B500AF41
:109FE400FFF76AFFFFF79AFF0123184680BD80B58B
:109FF40092B000AFF860B9607A603B60FB689B691F
:10A004007B64FB681B78002B0AD0FB689A69FB68A9
:10A014009B8819461046FEF73AFE0246FB689A6191
:10A02400FB6803F10C00FB689B78002B01D0012135
:10A0340000E00221FB685B78082B0CBF012300239E
:10A04400DBB21A4607F1340305F07CFBFB687A6C3B
:10A054009A6107F134037B61BB68BB617B689AB288
:10A06400FB685B789BB2D31A9BB2BB83BB69BA8B88
:10A074001344FB623B68BB62FB685B7887F8303053
:10A084000023BB84FB681B7B022B01D11023BB8400
:10A09400FB689B78002B3DD0FB681B7B022B02D115
:10A0A400FB681B693B62FB6800225A62FB68186A02
:10A0B400FB68D978FB6824331A4615F017F915E0C4
:10A0C400FB685B6A07F1100211461846FFF764FB50
:10A0D4000346002B01D0002351E0FB68186AFB689B
:10A0E400D978FB6824331A4615F000F9FB685B6ADB
:10A0F400002BE5D1FB681B7B022B3FD1FB68DA897F
:10A10400FB680C331946104615F000FA0346002B81
:10A11400C2D133E0FB6800225A62FB681B7B012B2F
:10A1240014D1FB68DA89FB6824331946104615F00C
:10A134000CF9FB685B6A07F1100211461846FFF739
:10A144002BFB0346002B01D0002318E0FB68002200
:10A154005A62FB689A8AFB6824331946104615F044
:10A16400F4F8FB685B6A07F1100211461846FFF722
:10A1740013FB0346002B01D0002300E005231846FF
:10A184004837BD4680BD80B584B000AFF860B96083
:10A194007A607B680C331822B968184628F0CAFB29
:10A1A400F868FEF7FFFB0346002B14BF01230023CE
:10A1B400DAB27B681A707B68DB7D002B0AD0F86802
:10A1C400FEF721FC03461A467B689A707B680022DE
:10A1D4005A7024E0F868FEF782FB0346002B14BF94
:10A1E40001230023DAB27B689A70F868FEF7ABFBB0
:10A1F40003461A467B68DA707B681B78002B0BD009
:10A20400F868FEF72FFC0346002B01D0082200E07B
:10A2140004227B685A7002E07B6804225A707B68CF
:10A224001B78002B14D0F868FEF74DFC03461A4641
:10A234007B689A80F868FEF793FC03461A467B68AD
:10A244009A71F868FEF7D9FC03461A467B68DA71FE
:10A254007B6800225A6200BF1037BD4680BD0000F3
:10A2640090B58BB002AFF860B9607A603B60BB68B0
:10A27400062B4FD1F868FEF7AFFA0346FB83F86864
:10A28400FEF7F7FAB861FB8B19467868FFF79EF87A
:10A2940078617B69002B17D1204B1B6803F0040302
:10A2A400002B38D01E4B1B68012B34DD1D4CFEF7F0
:10A2B4006FFA02461C4B0093134640F2B942214602
:10A2C400022006F0D1FD26E07B699A6CBB691A4333
:10A2D4007B699A64BB69002B04D103217869FEF77A
:10A2E400B5FE18E07B699C6C7B691846FEF7B4FCEC
:10A2F40003469C4203D17869FEF700FF0BE07B69BB
:10A30400002283F84C207869FFF7BEFC7869FEF7D9
:10A3140063FF00E000BF2437BD4690BD48330020F2
:10A324004C3300209D2E0500202F050080B487B0FB
:10A3340000AF0346FB7100237B6120E07B69DB00F7
:10A34400154A1344FB6000233B6110E0FB681A6864
:10A354003B69DB001344BB60BB681B78FA799A4203
:10A3640002D1BB685B6810E03B6901333B61FB6869
:10A374005B683A699A42E9D37B6901337B61074B95
:10A384001B687A699A42D9D3002318461C37BD4604
:10A394005DF8047B704700BFAC3C0020B43C002057
:10A3A40080B58EB000AFF860B9607A603B607B68BE
:10A3B4009B78002B06D13B687A68B968F868FFF788
:10A3C4004FFF2CE07B689B781846FFF7AFFF78635C
:10A3D4007B6B002B22D07B689B783B757B681B6A68
:10A3E400FB627B689B8A7B847A6807F124030C32C6
:10A3F40092E8030083E803007B689B7D87F8303094
:10A40400FB68BB61BB68FB617B681B7887F8203005
:10A4140007F114027B6B39681046984700BF00BFF0
:10A424003837BD4680BD000090B5F5B002AF07F1E6
:10A434000C04206007F108000160391D0A603A46E7
:10A44400136007F1440307F1080207F10C01381DFA
:10A45400126809680068FFF7CAFDC7F8C401D7F895
:10A46400C431002B54D107F13C0301221A703B1D67
:10A474001B689A8A07F13C035A8007F13C030022C7
:10A484005A6007F1100300221A7007F1100307F154
:10A4940044025A6007F108031B689AB23B1D1B680B
:10A4A4005B789BB2D31A9AB207F110031A8107F1B1
:10A4B400100307F13C020C3392E8030083E8030025
:10A4C40007F110033A1D126814330C3292E80300AA
:10A4D40083E803003B1D1B689A7D07F1100383F892
:10A4E40024203B1D1B681A6A07F11003DA613B1D27
:10A4F4001B685A6A07F110031A6207F110033A46FF
:10A5040012689A6207F11003184600F01FFB16E068
:10A514000D4B1B6803F00403002B10D00B4B1B687E
:10A52400052B0CDD0A4CFEF733F90246094B009368
:10A5340013464FF4A5622146062006F095FC00BFA1
:10A5440007F5E677BD4690BD483300204C33002024
:10A554009D2E0500502F050080B584B000AFF86033
:10A56400B9607A603B607B68DB7D002B06D03B687A
:10A574007A68B968F868FFF713FF05E03B687A6802
:10A58400B968F868FFF750FF00BF1037BD4680BDBB
:10A5940080B584B000AF786039603B68FB60FB68CD
:10A5A40093F84430022B04D07B46BB60B868FDF7B7
:10A5B40055F8FB68022283F86420FA68FB689B6CF8
:10A5C40019461046FEF7B0FE0346002B03D1FB6884
:10A5D400002283F8642000BF1037BD4680BD80B5DB
:10A5E40084B000AF786039603B68FB60FB6893F827
:10A5F4004430012B04D07B46BB60B868FDF72EF8CD
:10A60400FB6893F84D30002B0CD1FB681B7B012BAE
:10A6140004D10121F868FEF719FD12E0F868FEF78D
:10A624006DFD0EE0FB6893F84D30013BDAB2FB6838
:10A6340083F84D20FB68002283F84C20F868FFF76C
:10A6440023FB00BF1037BD4680BD80B584B000AF8A
:10A65400786039603B68FB600021F868FEF7F6FC1F
:10A6640000BF1037BD4680BD80B590B000AFB96063
:10A674007A603B600346FB73FB7B002B0CD13B6889
:10A6840013F1020F08D001233B753B68BB6107F14E
:10A694001403184600F05AFA044B1B68184604F0D9
:10A6A4008BFE00BF4037BD4680BD00BFA83C0020E4
:10A6B40080B584B000AFF860B9607A60FB689B8AAB
:10A6C400184602F06DFD0346012B0BD1FB681B7B82
:10A6D400002B07D0FB681B7B022B05D1FB681B6991
:10A6E400002B01D1102317E0FB689B7D5BB2002B8C
:10A6F40001DA072310E0FB681B78002B06D07A6888
:10A70400B968F868FFF7F4FA034605E07A68B968AF
:10A71400F868FFF7E5F9034618461037BD4680BDD3
:10A7240080B582B000AF786000F088F84FF4D8723A
:10A7340000211B4828F027F907F0FFFF194B0022DE
:10A744001A6040220021184828F01DF9174B184AB6
:10A754001A60164B174A5A60144B4CF250329A60E6
:10A76400124B154ADA60114B4CF250321A610F4BFE
:10A7740004221A750D4B00229A750C4B08225A7547
:10A784000E4804F0E7FD02460D4B1A600D4B002203
:10A794001A600D4808F04CFA00BF0837BD4680BD6A
:10A7A400AC3A0020643C0020683C0020943A00202D
:10A7B40080969800F049020020A10700E19F020062
:10A7C400A83C0020B43C00206DA6020080B584B0F3
:10A7D40000AF786039607B68002B0CBF0123002335
:10A7E400DAB23B68002B0CBF01230023DBB25340D9
:10A7F400DBB2002B01D00E2318E07B68002B06D1BE
:10A804003B68002B03D100F019F800230EE0EFF3AE
:10A814001083FB6072B6074A7B681360064A3B6884
:10A824001360FB68002B00D162B600231846103772
:10A83400BD4680BD5C3C0020603C002080B582B0F9
:10A8440000AF08490848FFF7C1FF0346002B04D0B6
:10A854007B467B607868FCF701FF00BF0837BD4684
:10A8640080BD00BF052805007127050080B592B0A2
:10A8740000AFF860B9607A603B6000237B64FB68DA
:10A88400002B02D07B68002B01D10E2373E007F16B
:10A894003C0308220021184628F075F87B685B8881
:10A8A40007F13C021146184614F030FE034683F0CB
:10A8B4000103DBB2002B01D07B6C5CE07B68188960
:10A8C4007B68D9687B681B69DBB203F00103DBB2E8
:10A8D4001A4607F0A1FF0346002B01D07B6C4AE027
:10A8E4007B6818897B68D9687B681B69DBB203F0D5
:10A8F4000103DBB21A4607F027FF78647B6C002B58
:10A904000DD07B6818897B681B69DBB203F00103F7
:10A91400DBB200221946FEF7DDF97B6C2BE007F170
:10A9240010031A467968F868FFF72DFC07F11C0339
:10A9340007F13C0292E8030083E8030004F0B4FC4E
:10A944003B7C002B0AD0F868FDF72EFFBB68191F6B
:10A9540007F110023B68FEF721FE09E0F868FDF7F5
:10A964002FFFBB68591E07F110023B68FFF7F4FD87
:10A9740004F0C4FC002318464837BD4680BD80B5AA
:10A984008EB000AF786039607B68002B0BD07B6899
:10A994001B69002B07D07B68DB69002B03D07B6825
:10A9A4009B69002B01D10E2316E007F10803796897
:10A9B4001846FEF7A7FF78637B6B002B01D07B6BF7
:10A9C4000AE07B6819697B689B8A1A4607F10803C9
:10A9D4001846FFF76DFE034618463837BD4680BD5E
:10A9E40080B58EB000AF786039607B68002B07D0EB
:10A9F4007B685B68002B03D07B689B69002B01D1CB
:10AA04000E2322E07B681B7C022B03D07B681B7C1B
:10AA1400002B01D1102318E07B681B785BB2002B5C
:10AA240001DA072311E007F10C033A687968184644
:10AA3400FFF704F87B685B6819467B689A6807F13E
:10AA44000C031846FFF734FE034618463837BD4654
:10AA540080BD000080B584B000AF786039607B6849
:10AA6400002B01D10E2349E0264B1B68002B01D09B
:10AA7400042343E00023FB6029E0FB68DB007A68E1
:10AA840013445B68002B01D10E2337E0FB68DB0025
:10AA94007A6813441B785BB2002B01DA0B232DE098
:10AAA400FB68DB007A6813441B78002B0AD0FB6830
:10AAB400DB007A6813441B781846FFF737FC03461B
:10AAC400002B01D00F2319E0FB680133FB60FA6807
:10AAD4003B689A42D1D30B4B1B680B497A6841F807
:10AAE4003320084B1B68084ADB0013443A685A6059
:10AAF400044B1B680133034A1360002318461037C4
:10AB0400BD4680BDB43C0020AC3C002080B584B080
:10AB140000AF0D4B1B68FB600FE0FB68043BBB60A0
:10AB2400FB681B687B60BB681B7A002B03D0F96849
:10AB3400054806F0BBF87B68FB60FB68002BECD192
:10AB440000BF1037BD4680BDB83C002080B586B03C
:10AB540000AF78607B68002B04D17B463B61386989
:10AB6400FCF77CFD154B1B68002B23D0144B0122F2
:10AB74001A70124B1B687B6110E07B69043BFB601D
:10AB8400FB681B7A83F00103DBB2002B03D0FB6864
:10AB94001B68786898477B691B687B617B69002B1D
:10ABA400EBD1074B1B78022B04D1FFF7AFFF044B0B
:10ABB40000221A7000BF1837BD4680BDB83C002083
:10ABC400BC3C002080B584B000AF78607B68002B6B
:10ABD40004D17B46FB60F868FCF740FD7B680022EB
:10ABE4001A727B6804331946034806F01DF800BF47
:10ABF4001037BD4680BD00BFB83C002080B584B08E
:10AC040000AF78607B68002B04D17B46FB60F8685A
:10AC1400FCF724FD0C4B1B78012B03D00A4B1B784B
:10AC2400022B06D1084B02221A707B6801221A7289
:10AC340005E07B6804331946044806F037F800BF82
:10AC44001037BD4680BD00BFBC3C0020B83C00208E
:10AC540080B483B000AF786039603B687A689268EA
:10AC64009B1A9BB218460C37BD465DF8047B7047AF
:10AC740080B483B000AF78600B467B807B689A68B1
:10AC84007B88134418460C37BD465DF8047B704737
:10AC940080B584B000AF786039603B681B88194682
:10ACA4007868FFF7E5FF03461B880433BB813B68E4
:10ACB4001A88BB8903339BB223F003039BB213446A
:10ACC400FB81FA897B681B88043B9A4201D90023E3
:10ACD400FB813B68FA891A8000BF1037BD4680BDEE
:10ACE40080B584B000AF7860396039687868FFF760
:10ACF400AFFF0346FB8107F10E0319467868FFF79F
:10AD0400C7FFFB8919467868FFF7B2FF0346184668
:10AD14001037BD4680BD80B584B000AF786039601F
:10AD24007B689B687A68928813443A689A4204D094
:10AD34007B46FB60F868FCF791FC3B6800229A7044
:10AD44007B68043319467868FFF7A2FF7B689B8809
:10AD540019467868FFF78CFF03469B78042B02D1D1
:10AD64007B6800229A8000BF1037BD4680BD80B545
:10AD740084B000AF786039607B689B687A685288D9
:10AD840013443A689A4204D07B46FB60F868FCF7A7
:10AD940065FC3B6800229A7000BF1037BD4680BD39
:10ADA40080B483B000AF78607B681B88043B9BB29F
:10ADB40018460C37BD465DF8047B704780B584B0F7
:10ADC40000AF78600B467B807B685B8819467868A7
:10ADD400FFF74EFFF860FB687A881A80FB6801224F
:10ADE4009A70FB6818461037BD4680BD80B582B0A6
:10ADF40000AF786000217868FFF73AFF034600222D
:10AE04009A707B6800225A807B6800229A8000BF77
:10AE14000837BD4680BD80B586B000AF78600B466C
:10AE24007B807B8807339BB223F003037B827B68A0
:10AE34005A887B689B889A420ED27A8A7B689B8860
:10AE440019467B685B88CB1A9A4202DC00237B613B
:10AE540042E004237B613FE07B685A887B689B88DF
:10AE64009A4227D97B681B881A467B685B88D31A69
:10AE7400FB607B8AFA689A4202D300237B612BE051
:10AE84007B689B887A8A9A4211D8FB68032B08D97D
:10AE94007B685B8819467868FFF7EAFE034604225C
:10AEA4009A707B6800225A8000237B6114E004239B
:10AEB4007B6111E07B689B8819467868FFF7D8FEB0
:10AEC40003469B78002B05D17868FFF78FFF00239A
:10AED4007B6101E004237B617B6918461837BD461A
:10AEE40080BD80B58AB000AFF860B9601346FB80BE
:10AEF400BB68002B04D17B467B62786AFCF7AEFB0F
:10AF0400FB68002B04D17B463B62386AFCF7A6FB46
:10AF1400BB68B3F1005F09D94FF08053D3F80C310B
:10AF240003F500239A02BB689A4212D8BB68B3F5B2
:10AF3400000F09D94FF08053D3F80C3103F50053B7
:10AF44009A02BB689A4204D87B46FB61F869FCF715
:10AF540085FBFB88013BBA681344B3F1005F0DD94C
:10AF6400FB88013BBA6813441A464FF08053D3F868
:10AF74000C3103F500239B029A4219D3FB88013B51
:10AF8400BA681344B3F5000F0DD9FB88013BBA68C6
:10AF940013441A464FF08053D3F80C3103F5005391
:10AFA4009B029A4204D37B46BB61B869FCF756FB0B
:10AFB400FB88042B04D87B467B617869FCF74EFB45
:10AFC400FB68FA881A80FB6800225A80FB6800221A
:10AFD4009A80FB68BA689A600021F868FFF748FE17
:10AFE4003861FB681B88043B9AB23B691A803B6951
:10AFF40000229A7000BF2837BD4680BD80B588B056
:10B0040000AF78607B68002B04D17B46FB61F86954
:10B01400FCF724FB7B685B8819467868FFF728FEF9
:10B0240003469B78012B04D17B46BB61B869FCF7CE
:10B0340015FB7B689B8819467868FFF719FE7861D1
:10B04400EFF310833B6172B67B699B78032B0CBFD3
:10B0540001230023FB73FB7B002B10D079697868F4
:10B06400FFF73EFE786179697868FFF7F1FD0346E2
:10B074001A467B685A807B6900229A7002E07868DD
:10B08400FFF7B4FE3B69002B00D162B600BF203746
:10B09400BD4680BD80B588B000AFF860B960134686
:10B0A400FB80FB68002B04D17B46BB61B869FCF7CD
:10B0B400D5FABB68002B04D17B467B617869FCF729
:10B0C400CDFAFB685B881946F868FFF7D1FD0346A3
:10B0D4009B78012B04D17B463B613869FCF7BEFAAF
:10B0E4000023FB61FB88002B07D0F868FFF758FEAC
:10B0F40003461A46FB88934202D90923FB6110E0F8
:10B10400FB881946F868FFF786FEF861FB69002B97
:10B1140007D1FB881946F868FFF750FE0246BB6862
:10B124001A60FB6918462037BD4680BD80B58AB0D9
:10B1340000AFF860B9601346FB80FB68002B04D1B4
:10B144007B467B62786AFCF789FABB68002B04D1E2
:10B154007B463B62386AFCF781FABB689B78012B1B
:10B1640004D07B46FB61F869FCF778FABB681B885E
:10B17400FA889A4204D97B46BB61B869FCF76EFA37
:10B18400FB88002B04D17B467B617869FCF766FA67
:10B19400BB68FA881A80BB6802229A70FB68023383
:10B1A4001946F868FFF774FDFB685A88FB689B88AA
:10B1B4009A4209D0FB685B881946F868FFF758FD86
:10B1C40038613B6900229A7000BF2837BD4680BDB4
:10B1D40080B588B000AF786039607B68002B04D1FB
:10B1E4007B467B617869FCF739FA3B68002B04D114
:10B1F4007B463B613869FCF731FA0023FB617B68CD
:10B204009B8819467868FFF733FDB861BB699B7862
:10B21400042B0CD17B68043319467868FFF738FD9A
:10B224007B689B8819467868FFF722FDB861BB6983
:10B234009B78022B02D0032B07D00CE0BB690322BE
:10B244009A703B68BA691A6008E07B46FB60F8684C
:10B25400FCF704FA02E00523FB6100BFFB69184612
:10B264002037BD4680BD80B584B000AF78607B6870
:10B27400002B04D17B46BB60B868FCF7EFF97B6810
:10B284009B8819467868FFF7F3FCF860FB689B78A5
:10B29400042B04D1F9687868FFF722FDF860FB6895
:10B2A4009B78022B0CBF01230023DBB21846103716
:10B2B400BD4680BD80B584B000AF78607B68002B4C
:10B2C40004D17B46BB60B868FCF7C8F97B689B88EF
:10B2D40019467868FFF7CCFCF86004E0F9687868F0
:10B2E400FFF7FEFCF860FB689B78032BF6D0FB6845
:10B2F4009B78042BF2D0FB689B78022B0CBF0123B4
:10B304000023DBB218461037BD4680BD80B586B039
:10B3140000AF786039607B68002B04D17B467B6189
:10B324007869FCF79BF93B68002B04D17B463B61B1
:10B334003869FCF793F93B689B78012B06D0032B03
:10B3440009D139687868FFF7E6FC09E0396878685C
:10B35400FFF70DFD04E07B46FB60F868FCF77EF91F
:10B3640000BF1837BD4680BD80B588B000AFF86017
:10B37400B9607A603B6001233B74FB687B61BB6806
:10B38400FB617B68BB6107F110033A681946012031
:10B3940001F024FE034618462037BD4680BD80B523
:10B3A40088B000AFF860B9607A6002233B74FB6830
:10B3B4007B61BB68BB6107F110037A681946012001
:10B3C40001F00CFE034618462037BD4680BD80B40C
:10B3D40083B000AF78607B681B791A467B685B7921
:10B3E400D31A03F57F2303F6FF731B037A68134410
:10B3F40018460C37BD465DF8047B704780B582B0B3
:10B4040000AF78607868FFF7E2FF034603F58053E6
:10B4140018460837BD4680BD80B483B000AF0346EC
:10B42400FB80FB88002B05D0FB88B3F5FE4F01D2CF
:10B43400012300E0002303F00103DBB218460C37BC
:10B44400BD465DF8047B704780B483B000AF78607C
:10B454007B681B781A467B68134418460C37BD4634
:10B464005DF8047B704780B584B000AF78607B687A
:10B474001B88002B04D17B46FB60F868FCF7EEF8D0
:10B484007B681B889B007A681A447B681B889B0036
:10B4940079680B4423F47F6323F00F039A4204D0AA
:10B4A4007B685B88B3F5FE4F0BD17B6823F47F6325
:10B4B40023F00F0303F580531846FFF7C5FF034637
:10B4C40004E07B681B889B007A6813441846103795
:10B4D400BD4680BD80B584B000AF786039607B68BC
:10B4E400FB607868FFF7BFFF78607A683B689A4230
:10B4F40003D27A68FB689A4201D800230BE07B6888
:10B504005B881846FFF788FF034683F00103DBB22C
:10B51400002BE6D17B6818461037BD4680BD80B548
:10B5240084B000AFF860B9607A603B60FB680022C9
:10B534005A60BB685B881846FFF76EFF034683F0CA
:10B544000103DBB2002B0CD07968B868FFF7C2FFA7
:10B55400B860BB68002B04D1FB6800221A6000238A
:10B5640030E0FB68BA681A600BE0FB685A68BB6895
:10B574001B889B001A44FB685A60B868FFF773FF86
:10B58400B860BA687B689A421BD2FB685A68BB6889
:10B594001B889B0013443A689A4212D9FB681B68C3
:10B5A4001A46BB68534023F47F6323F00F03002B38
:10B5B40007D1BB685B881846FFF72EFF0346002BB4
:10B5C400D3D1BB6818461037BD4680BD98B500AFCF
:10B5D400134BDB681846FFF737FF114BDB6803F5A5
:10B5E40080530022194607F0D1FA0346002B13D1E9
:10B5F4000B4BDC680A4BDB681846FFF7E8FE034692
:10B604009C4201D1022308E0054BDB6803F580531B
:10B61400034AD360032300E00123184698BD00BF0A
:10B62400C43C002080B500AF074B1B68074A4FF4A9
:10B6340080511846FFF7B3FE0346002B01D10123C6
:10B6440000E00023184680BDC03C0020E03C002000
:10B6540080B582B000AF154BDB681B787B60144B60
:10B664001B68181D114BD968124B7A68FFF77CFED2
:10B674000346002B15D10E4B1A687B689B089B0070
:10B6840013440433094A5361084BDB681846FFF737
:10B69400DBFE0246054B1A61044B00225A76012355
:10B6A40000E0002318460837BD4680BDC43C002096
:10B6B400C03C0020E03C002090B589B000AF394B7D
:10B6C4001B69002B04D17B46BB61B869FBF7C6FF3D
:10B6D400344B5B69002B04D17B467B617869FBF7B3
:10B6E400BDFF0023FB774AE02E4B5B6923F47F63A5
:10B6F40023F00F032B4A52699B1A03F580533B61D5
:10B70400284B1C69274BDB681846FFF777FE024677
:10B7140038463B692146FFF702FFF8607B68002B3F
:10B724001FD0204B586939687A681F4BFFF71CFEFD
:10B734000346002B13D11B4B5A697B6823F0030388
:10B744001344184A5361FB68002B04D17B46BB6049
:10B75400B868FBF783FF134AFB68136103E0002317
:10B764001BE00123FB77FB68002B05D0FB685B889B
:10B7740047F6FF72934202D10A4B01225A76094BD3
:10B784005B7E83F00103DBB2002B05D0FB7F83F0EB
:10B794000103DBB2002BA7D1012318462437BD4691
:10B7A40090BD00BFC43C0020E03C002080B500AF49
:10B7B400074B1B681846074B04220749FFF7D4FDC3
:10B7C4000346002B01D1012300E00023184680BD6D
:10B7D400C03C0020E03C0020D03C002080B500AFFD
:10B7E400074BDB68074A4FF480511846FFF7D7FD33
:10B7F4000346002B01D1012300E00023184680BD3D
:10B80400C43C0020E03C002080B500AF0A4BD8685F
:10B814000A4B1B68191D0A4B40F6FC72FFF7A4FD86
:10B824000346002B04D1044B01221A76012300E0C5
:10B834000023184680BD00BFC43C0020C03C00204B
:10B84400E03C002080B582B000AF1C4BDB6818469A
:10B85400FFF7FAFD194BDB6803F580534FF6FF72CF
:10B86400194607F093F938603B68002B08D0134B56
:10B87400DB681846FFF7E8FD02463B68934201D1B6
:10B88400012317E00D4B5B7E002B02D00C4B7B6039
:10B8940001E00C4B7B600C4B042279683868FFF79D
:10B8A40063FD0346002B04D1044B01221A760123C5
:10B8B40000E0002318460837BD4680BDC43C002084
:10B8C4008431050080310500E03C002080B584B05F
:10B8D40000AF2E4BDB685B791A462C4BDB681B7977
:10B8E400013B9A4201D101234CE0284BDB6803F56C
:10B8F40080531846FFF7A8FDF860254B1B680433F6
:10B904001846FFF7A1FDB860204BDB681846FFF727
:10B9140075FD7860FB685B881846FFF77DFD03467C
:10B9240083F00103DBB2002B26D07968F868FFF7B7
:10B93400D1FDF86020E0164B1B6803F58051FB68CD
:10B944005B881A46B86807F021F9B860BB68002B19
:10B9540016D00E4B01221A760E4B04220E49F868BB
:10B96400FFF702FD0346002B01D000230AE07968AB
:10B97400F868FFF7AFFDF860FB68002BDBD100E04F
:10B9840000BF012318461037BD4680BDC43C0020CB
:10B99400C03C0020E03C00207C31050098B500AF9D
:10B9A400124BDC68114BDB681846FFF710FD0346A9
:10B9B4009C4211D10E4B1B6818460E4B04220E49B3
:10B9C400FFF7D2FC0346002B04D1084B01221A7660
:10B9D400022308E0002306E0044BDB6803F58053F0
:10B9E400024AD3600323184698BD00BFC43C00201C
:10B9F400C03C0020E03C0020E43C002080B582B044
:10BA040000AF074B9B687B601C220021044826F092
:10BA1400BAFF786806F00AFC00BF0837BD4680BD4F
:10BA2400C43C002080B584B000AF78600023FB6084
:10BA34000DE00C4AFB6852F823307A689A4203D12D
:10BA4400094AFB6853600AE0FB680133FB60FB684A
:10BA5400092BEED97B46BB60B868FBF7FFFD1037B6
:10BA6400BD4680BD7C2F0500C43C002080B586B057
:10BA740000AF304BDB68002B04D17B467B617869D7
:10BA8400FBF7ECFD2B4B1B7E002B04D07B463B616C
:10BA94003869FBF7E3FD274B5B68092B04D97B4628
:10BAA400FB60F868FBF7DAFD224B5B68224A52F828
:10BAB400233098470346FB72FB7A032B29D801A253
:10BAC40052F823F017BB0200D9BA0200FFBA0200F1
